{
  "_format": "hh-sol-artifact-1",
  "contractName": "NFTMarket",
  "sourceName": "contracts/NFTMarket.sol",
  "abi": [
    {
      "inputs": [],
      "stateMutability": "nonpayable",
      "type": "constructor"
    },
    {
      "anonymous": false,
      "inputs": [
        {
          "indexed": true,
          "internalType": "address",
          "name": "owner",
          "type": "address"
        },
        {
          "indexed": true,
          "internalType": "address",
          "name": "approved",
          "type": "address"
        },
        {
          "indexed": true,
          "internalType": "uint256",
          "name": "tokenId",
          "type": "uint256"
        }
      ],
      "name": "Approval",
      "type": "event"
    },
    {
      "anonymous": false,
      "inputs": [
        {
          "indexed": true,
          "internalType": "address",
          "name": "owner",
          "type": "address"
        },
        {
          "indexed": true,
          "internalType": "address",
          "name": "operator",
          "type": "address"
        },
        {
          "indexed": false,
          "internalType": "bool",
          "name": "approved",
          "type": "bool"
        }
      ],
      "name": "ApprovalForAll",
      "type": "event"
    },
    {
      "anonymous": false,
      "inputs": [
        {
          "indexed": true,
          "internalType": "address",
          "name": "from",
          "type": "address"
        },
        {
          "indexed": true,
          "internalType": "address",
          "name": "to",
          "type": "address"
        },
        {
          "indexed": true,
          "internalType": "uint256",
          "name": "tokenId",
          "type": "uint256"
        }
      ],
      "name": "Transfer",
      "type": "event"
    },
    {
      "inputs": [
        {
          "internalType": "address",
          "name": "to",
          "type": "address"
        },
        {
          "internalType": "uint256",
          "name": "tokenId",
          "type": "uint256"
        }
      ],
      "name": "approve",
      "outputs": [],
      "stateMutability": "nonpayable",
      "type": "function"
    },
    {
      "inputs": [
        {
          "internalType": "address",
          "name": "owner",
          "type": "address"
        }
      ],
      "name": "balanceOf",
      "outputs": [
        {
          "internalType": "uint256",
          "name": "",
          "type": "uint256"
        }
      ],
      "stateMutability": "view",
      "type": "function"
    },
    {
      "inputs": [
        {
          "internalType": "uint256",
          "name": "_itemId",
          "type": "uint256"
        }
      ],
      "name": "buyItem",
      "outputs": [],
      "stateMutability": "payable",
      "type": "function"
    },
    {
      "inputs": [],
      "name": "getAllItemsForSale",
      "outputs": [
        {
          "components": [
            {
              "internalType": "uint256",
              "name": "itemId",
              "type": "uint256"
            },
            {
              "internalType": "string",
              "name": "name",
              "type": "string"
            },
            {
              "internalType": "string",
              "name": "description",
              "type": "string"
            },
            {
              "internalType": "uint256",
              "name": "price",
              "type": "uint256"
            },
            {
              "internalType": "address",
              "name": "owner",
              "type": "address"
            },
            {
              "internalType": "string",
              "name": "tokenURI",
              "type": "string"
            },
            {
              "internalType": "bool",
              "name": "forSale",
              "type": "bool"
            }
          ],
          "internalType": "struct NFTMarket.Item[]",
          "name": "",
          "type": "tuple[]"
        }
      ],
      "stateMutability": "view",
      "type": "function"
    },
    {
      "inputs": [
        {
          "internalType": "uint256",
          "name": "tokenId",
          "type": "uint256"
        }
      ],
      "name": "getApproved",
      "outputs": [
        {
          "internalType": "address",
          "name": "",
          "type": "address"
        }
      ],
      "stateMutability": "view",
      "type": "function"
    },
    {
      "inputs": [
        {
          "internalType": "address",
          "name": "_owner",
          "type": "address"
        }
      ],
      "name": "getOwnedItems",
      "outputs": [
        {
          "components": [
            {
              "internalType": "uint256",
              "name": "itemId",
              "type": "uint256"
            },
            {
              "internalType": "string",
              "name": "name",
              "type": "string"
            },
            {
              "internalType": "string",
              "name": "description",
              "type": "string"
            },
            {
              "internalType": "uint256",
              "name": "price",
              "type": "uint256"
            },
            {
              "internalType": "address",
              "name": "owner",
              "type": "address"
            },
            {
              "internalType": "string",
              "name": "tokenURI",
              "type": "string"
            },
            {
              "internalType": "bool",
              "name": "forSale",
              "type": "bool"
            }
          ],
          "internalType": "struct NFTMarket.Item[]",
          "name": "",
          "type": "tuple[]"
        }
      ],
      "stateMutability": "view",
      "type": "function"
    },
    {
      "inputs": [
        {
          "internalType": "uint256",
          "name": "_itemId",
          "type": "uint256"
        }
      ],
      "name": "getSingleItem",
      "outputs": [
        {
          "components": [
            {
              "internalType": "uint256",
              "name": "itemId",
              "type": "uint256"
            },
            {
              "internalType": "string",
              "name": "name",
              "type": "string"
            },
            {
              "internalType": "string",
              "name": "description",
              "type": "string"
            },
            {
              "internalType": "uint256",
              "name": "price",
              "type": "uint256"
            },
            {
              "internalType": "address",
              "name": "owner",
              "type": "address"
            },
            {
              "internalType": "string",
              "name": "tokenURI",
              "type": "string"
            },
            {
              "internalType": "bool",
              "name": "forSale",
              "type": "bool"
            }
          ],
          "internalType": "struct NFTMarket.Item[]",
          "name": "",
          "type": "tuple[]"
        }
      ],
      "stateMutability": "view",
      "type": "function"
    },
    {
      "inputs": [
        {
          "internalType": "address",
          "name": "owner",
          "type": "address"
        },
        {
          "internalType": "address",
          "name": "operator",
          "type": "address"
        }
      ],
      "name": "isApprovedForAll",
      "outputs": [
        {
          "internalType": "bool",
          "name": "",
          "type": "bool"
        }
      ],
      "stateMutability": "view",
      "type": "function"
    },
    {
      "inputs": [
        {
          "internalType": "uint256",
          "name": "",
          "type": "uint256"
        }
      ],
      "name": "items",
      "outputs": [
        {
          "internalType": "uint256",
          "name": "itemId",
          "type": "uint256"
        },
        {
          "internalType": "string",
          "name": "name",
          "type": "string"
        },
        {
          "internalType": "string",
          "name": "description",
          "type": "string"
        },
        {
          "internalType": "uint256",
          "name": "price",
          "type": "uint256"
        },
        {
          "internalType": "address",
          "name": "owner",
          "type": "address"
        },
        {
          "internalType": "string",
          "name": "tokenURI",
          "type": "string"
        },
        {
          "internalType": "bool",
          "name": "forSale",
          "type": "bool"
        }
      ],
      "stateMutability": "view",
      "type": "function"
    },
    {
      "inputs": [
        {
          "internalType": "string",
          "name": "_name",
          "type": "string"
        },
        {
          "internalType": "string",
          "name": "_desc",
          "type": "string"
        },
        {
          "internalType": "uint256",
          "name": "_price",
          "type": "uint256"
        },
        {
          "internalType": "string",
          "name": "_tokenURI",
          "type": "string"
        }
      ],
      "name": "listItem",
      "outputs": [],
      "stateMutability": "nonpayable",
      "type": "function"
    },
    {
      "inputs": [],
      "name": "name",
      "outputs": [
        {
          "internalType": "string",
          "name": "",
          "type": "string"
        }
      ],
      "stateMutability": "view",
      "type": "function"
    },
    {
      "inputs": [
        {
          "internalType": "uint256",
          "name": "tokenId",
          "type": "uint256"
        }
      ],
      "name": "ownerOf",
      "outputs": [
        {
          "internalType": "address",
          "name": "",
          "type": "address"
        }
      ],
      "stateMutability": "view",
      "type": "function"
    },
    {
      "inputs": [
        {
          "internalType": "uint256",
          "name": "_itemId",
          "type": "uint256"
        },
        {
          "internalType": "uint256",
          "name": "_newSellingPrice",
          "type": "uint256"
        }
      ],
      "name": "resellItem",
      "outputs": [],
      "stateMutability": "nonpayable",
      "type": "function"
    },
    {
      "inputs": [
        {
          "internalType": "address",
          "name": "from",
          "type": "address"
        },
        {
          "internalType": "address",
          "name": "to",
          "type": "address"
        },
        {
          "internalType": "uint256",
          "name": "tokenId",
          "type": "uint256"
        }
      ],
      "name": "safeTransferFrom",
      "outputs": [],
      "stateMutability": "nonpayable",
      "type": "function"
    },
    {
      "inputs": [
        {
          "internalType": "address",
          "name": "from",
          "type": "address"
        },
        {
          "internalType": "address",
          "name": "to",
          "type": "address"
        },
        {
          "internalType": "uint256",
          "name": "tokenId",
          "type": "uint256"
        },
        {
          "internalType": "bytes",
          "name": "_data",
          "type": "bytes"
        }
      ],
      "name": "safeTransferFrom",
      "outputs": [],
      "stateMutability": "nonpayable",
      "type": "function"
    },
    {
      "inputs": [
        {
          "internalType": "address",
          "name": "operator",
          "type": "address"
        },
        {
          "internalType": "bool",
          "name": "approved",
          "type": "bool"
        }
      ],
      "name": "setApprovalForAll",
      "outputs": [],
      "stateMutability": "nonpayable",
      "type": "function"
    },
    {
      "inputs": [
        {
          "internalType": "bytes4",
          "name": "interfaceId",
          "type": "bytes4"
        }
      ],
      "name": "supportsInterface",
      "outputs": [
        {
          "internalType": "bool",
          "name": "",
          "type": "bool"
        }
      ],
      "stateMutability": "view",
      "type": "function"
    },
    {
      "inputs": [],
      "name": "symbol",
      "outputs": [
        {
          "internalType": "string",
          "name": "",
          "type": "string"
        }
      ],
      "stateMutability": "view",
      "type": "function"
    },
    {
      "inputs": [
        {
          "internalType": "uint256",
          "name": "tokenId",
          "type": "uint256"
        }
      ],
      "name": "tokenURI",
      "outputs": [
        {
          "internalType": "string",
          "name": "",
          "type": "string"
        }
      ],
      "stateMutability": "view",
      "type": "function"
    },
    {
      "inputs": [
        {
          "internalType": "address",
          "name": "from",
          "type": "address"
        },
        {
          "internalType": "address",
          "name": "to",
          "type": "address"
        },
        {
          "internalType": "uint256",
          "name": "tokenId",
          "type": "uint256"
        }
      ],
      "name": "transferFrom",
      "outputs": [],
      "stateMutability": "nonpayable",
      "type": "function"
    }
  ],
  "bytecode": "0x60806040523480156200001157600080fd5b506040518060400160405280600581526020017f416e696d650000000000000000000000000000000000000000000000000000008152506040518060400160405280600381526020017f414e4d0000000000000000000000000000000000000000000000000000000000815250816000908051906020019062000096929190620000b8565b508060019080519060200190620000af929190620000b8565b505050620001cd565b828054620000c69062000168565b90600052602060002090601f016020900481019282620000ea576000855562000136565b82601f106200010557805160ff191683800117855562000136565b8280016001018555821562000136579182015b828111156200013557825182559160200191906001019062000118565b5b50905062000145919062000149565b5090565b5b80821115620001645760008160009055506001016200014a565b5090565b600060028204905060018216806200018157607f821691505b602082108114156200019857620001976200019e565b5b50919050565b7f4e487b7100000000000000000000000000000000000000000000000000000000600052602260045260246000fd5b61454480620001dd6000396000f3fe60806040526004361061011f5760003560e01c8063a22cb465116100a0578063e7fb74c711610064578063e7fb74c714610423578063e985e9c51461043f578063ed854ef41461047c578063ef9fe6e5146104b9578063f9eccb3b146104e25761011f565b8063a22cb46514610314578063b88d4fde1461033d578063bfb231d214610366578063c87b56dd146103a9578063e417dc35146103e65761011f565b806323b872dd116100e757806323b872dd1461021d57806342842e0e146102465780636352211e1461026f57806370a08231146102ac57806395d89b41146102e95761011f565b806301ffc9a71461012457806304f260581461016157806306fdde031461018c578063081812fc146101b7578063095ea7b3146101f4575b600080fd5b34801561013057600080fd5b5061014b600480360381019061014691906130d1565b61050b565b6040516101589190613805565b60405180910390f35b34801561016d57600080fd5b506101766105ed565b60405161018391906137e3565b60405180910390f35b34801561019857600080fd5b506101a1610974565b6040516101ae9190613820565b60405180910390f35b3480156101c357600080fd5b506101de60048036038101906101d991906131ce565b610a06565b6040516101eb919061377c565b60405180910390f35b34801561020057600080fd5b5061021b60048036038101906102169190613095565b610a8b565b005b34801561022957600080fd5b50610244600480360381019061023f9190612f8f565b610ba3565b005b34801561025257600080fd5b5061026d60048036038101906102689190612f8f565b610c03565b005b34801561027b57600080fd5b50610296600480360381019061029191906131ce565b610c23565b6040516102a3919061377c565b60405180910390f35b3480156102b857600080fd5b506102d360048036038101906102ce9190612f2a565b610cd5565b6040516102e09190613ac2565b60405180910390f35b3480156102f557600080fd5b506102fe610d8d565b60405161030b9190613820565b60405180910390f35b34801561032057600080fd5b5061033b60048036038101906103369190613059565b610e1f565b005b34801561034957600080fd5b50610364600480360381019061035f9190612fde565b610e35565b005b34801561037257600080fd5b5061038d600480360381019061038891906131ce565b610e97565b6040516103a09796959493929190613add565b60405180910390f35b3480156103b557600080fd5b506103d060048036038101906103cb91906131ce565b61109e565b6040516103dd9190613820565b60405180910390f35b3480156103f257600080fd5b5061040d60048036038101906104089190612f2a565b6111f0565b60405161041a91906137e3565b60405180910390f35b61043d600480360381019061043891906131ce565b6115be565b005b34801561044b57600080fd5b5061046660048036038101906104619190612f53565b61181e565b6040516104739190613805565b60405180910390f35b34801561048857600080fd5b506104a3600480360381019061049e91906131ce565b6118b2565b6040516104b091906137e3565b60405180910390f35b3480156104c557600080fd5b506104e060048036038101906104db9190613123565b611bf2565b005b3480156104ee57600080fd5b50610509600480360381019061050491906131f7565b611da2565b005b60007f80ac58cd000000000000000000000000000000000000000000000000000000007bffffffffffffffffffffffffffffffffffffffffffffffffffffffff1916827bffffffffffffffffffffffffffffffffffffffffffffffffffffffff191614806105d657507f5b5e139f000000000000000000000000000000000000000000000000000000007bffffffffffffffffffffffffffffffffffffffffffffffffffffffff1916827bffffffffffffffffffffffffffffffffffffffffffffffffffffffff1916145b806105e657506105e582611f45565b5b9050919050565b6060600060016007546106009190613c75565b905060008167ffffffffffffffff811115610644577f4e487b7100000000000000000000000000000000000000000000000000000000600052604160045260246000fd5b60405190808252806020026020018201604052801561067d57816020015b61066a612cf9565b8152602001906001900390816106625790505b50905060005b8281101561096b576008600082815260200190815260200160002060060160009054906101000a900460ff1615610958576000600860008381526020019081526020016000209050806040518060e0016040529081600082015481526020016001820180546106f190613de6565b80601f016020809104026020016040519081016040528092919081815260200182805461071d90613de6565b801561076a5780601f1061073f5761010080835404028352916020019161076a565b820191906000526020600020905b81548152906001019060200180831161074d57829003601f168201915b5050505050815260200160028201805461078390613de6565b80601f01602080910402602001604051908101604052809291908181526020018280546107af90613de6565b80156107fc5780601f106107d1576101008083540402835291602001916107fc565b820191906000526020600020905b8154815290600101906020018083116107df57829003601f168201915b50505050508152602001600382015481526020016004820160009054906101000a900473ffffffffffffffffffffffffffffffffffffffff1673ffffffffffffffffffffffffffffffffffffffff1673ffffffffffffffffffffffffffffffffffffffff16815260200160058201805461087590613de6565b80601f01602080910402602001604051908101604052809291908181526020018280546108a190613de6565b80156108ee5780601f106108c3576101008083540402835291602001916108ee565b820191906000526020600020905b8154815290600101906020018083116108d157829003601f168201915b505050505081526020016006820160009054906101000a900460ff16151515158152505083838151811061094b577f4e487b7100000000000000000000000000000000000000000000000000000000600052603260045260246000fd5b6020026020010181905250505b808061096390613e49565b915050610683565b50809250505090565b60606000805461098390613de6565b80601f01602080910402602001604051908101604052809291908181526020018280546109af90613de6565b80156109fc5780601f106109d1576101008083540402835291602001916109fc565b820191906000526020600020905b8154815290600101906020018083116109df57829003601f168201915b5050505050905090565b6000610a1182611faf565b610a50576040517f08c379a0000000000000000000000000000000000000000000000000000000008152600401610a4790613a02565b60405180910390fd5b6004600083815260200190815260200160002060009054906101000a900473ffffffffffffffffffffffffffffffffffffffff169050919050565b6000610a9682610c23565b90508073ffffffffffffffffffffffffffffffffffffffff168373ffffffffffffffffffffffffffffffffffffffff161415610b07576040517f08c379a0000000000000000000000000000000000000000000000000000000008152600401610afe90613a62565b60405180910390fd5b8073ffffffffffffffffffffffffffffffffffffffff16610b2661201b565b73ffffffffffffffffffffffffffffffffffffffff161480610b555750610b5481610b4f61201b565b61181e565b5b610b94576040517f08c379a0000000000000000000000000000000000000000000000000000000008152600401610b8b90613942565b60405180910390fd5b610b9e8383612023565b505050565b610bb4610bae61201b565b826120dc565b610bf3576040517f08c379a0000000000000000000000000000000000000000000000000000000008152600401610bea90613a82565b60405180910390fd5b610bfe8383836121ba565b505050565b610c1e83838360405180602001604052806000815250610e35565b505050565b6000806002600084815260200190815260200160002060009054906101000a900473ffffffffffffffffffffffffffffffffffffffff169050600073ffffffffffffffffffffffffffffffffffffffff168173ffffffffffffffffffffffffffffffffffffffff161415610ccc576040517f08c379a0000000000000000000000000000000000000000000000000000000008152600401610cc390613982565b60405180910390fd5b80915050919050565b60008073ffffffffffffffffffffffffffffffffffffffff168273ffffffffffffffffffffffffffffffffffffffff161415610d46576040517f08c379a0000000000000000000000000000000000000000000000000000000008152600401610d3d90613962565b60405180910390fd5b600360008373ffffffffffffffffffffffffffffffffffffffff1673ffffffffffffffffffffffffffffffffffffffff168152602001908152602001600020549050919050565b606060018054610d9c90613de6565b80601f0160208091040260200160405190810160405280929190818152602001828054610dc890613de6565b8015610e155780601f10610dea57610100808354040283529160200191610e15565b820191906000526020600020905b815481529060010190602001808311610df857829003601f168201915b5050505050905090565b610e31610e2a61201b565b8383612421565b5050565b610e46610e4061201b565b836120dc565b610e85576040517f08c379a0000000000000000000000000000000000000000000000000000000008152600401610e7c90613a82565b60405180910390fd5b610e918484848461258e565b50505050565b6008602052806000526040600020600091509050806000015490806001018054610ec090613de6565b80601f0160208091040260200160405190810160405280929190818152602001828054610eec90613de6565b8015610f395780601f10610f0e57610100808354040283529160200191610f39565b820191906000526020600020905b815481529060010190602001808311610f1c57829003601f168201915b505050505090806002018054610f4e90613de6565b80601f0160208091040260200160405190810160405280929190818152602001828054610f7a90613de6565b8015610fc75780601f10610f9c57610100808354040283529160200191610fc7565b820191906000526020600020905b815481529060010190602001808311610faa57829003601f168201915b5050505050908060030154908060040160009054906101000a900473ffffffffffffffffffffffffffffffffffffffff169080600501805461100890613de6565b80601f016020809104026020016040519081016040528092919081815260200182805461103490613de6565b80156110815780601f1061105657610100808354040283529160200191611081565b820191906000526020600020905b81548152906001019060200180831161106457829003601f168201915b5050505050908060060160009054906101000a900460ff16905087565b60606110a982611faf565b6110e8576040517f08c379a00000000000000000000000000000000000000000000000000000000081526004016110df906139e2565b60405180910390fd5b600060066000848152602001908152602001600020805461110890613de6565b80601f016020809104026020016040519081016040528092919081815260200182805461113490613de6565b80156111815780601f1061115657610100808354040283529160200191611181565b820191906000526020600020905b81548152906001019060200180831161116457829003601f168201915b5050505050905060006111926125ea565b90506000815114156111a85781925050506111eb565b6000825111156111dd5780826040516020016111c5929190613758565b604051602081830303815290604052925050506111eb565b6111e684612601565b925050505b919050565b6060600060016007546112039190613c75565b905060008167ffffffffffffffff811115611247577f4e487b7100000000000000000000000000000000000000000000000000000000600052604160045260246000fd5b60405190808252806020026020018201604052801561128057816020015b61126d612cf9565b8152602001906001900390816112655790505b5090506000600190505b828110156115b3578473ffffffffffffffffffffffffffffffffffffffff166008600083815260200190815260200160002060040160009054906101000a900473ffffffffffffffffffffffffffffffffffffffff1673ffffffffffffffffffffffffffffffffffffffff1614156115a0576000600860008381526020019081526020016000209050806040518060e00160405290816000820154815260200160018201805461133990613de6565b80601f016020809104026020016040519081016040528092919081815260200182805461136590613de6565b80156113b25780601f10611387576101008083540402835291602001916113b2565b820191906000526020600020905b81548152906001019060200180831161139557829003601f168201915b505050505081526020016002820180546113cb90613de6565b80601f01602080910402602001604051908101604052809291908181526020018280546113f790613de6565b80156114445780601f1061141957610100808354040283529160200191611444565b820191906000526020600020905b81548152906001019060200180831161142757829003601f168201915b50505050508152602001600382015481526020016004820160009054906101000a900473ffffffffffffffffffffffffffffffffffffffff1673ffffffffffffffffffffffffffffffffffffffff1673ffffffffffffffffffffffffffffffffffffffff1681526020016005820180546114bd90613de6565b80601f01602080910402602001604051908101604052809291908181526020018280546114e990613de6565b80156115365780601f1061150b57610100808354040283529160200191611536565b820191906000526020600020905b81548152906001019060200180831161151957829003601f168201915b505050505081526020016006820160009054906101000a900460ff161515151581525050838381518110611593577f4e487b7100000000000000000000000000000000000000000000000000000000600052603260045260246000fd5b6020026020010181905250505b80806115ab90613e49565b91505061128a565b508092505050919050565b6008600082815260200190815260200160002060040160009054906101000a900473ffffffffffffffffffffffffffffffffffffffff1673ffffffffffffffffffffffffffffffffffffffff163373ffffffffffffffffffffffffffffffffffffffff161415611663576040517f08c379a000000000000000000000000000000000000000000000000000000000815260040161165a90613aa2565b60405180910390fd5b600073ffffffffffffffffffffffffffffffffffffffff166008600083815260200190815260200160002060040160009054906101000a900473ffffffffffffffffffffffffffffffffffffffff1673ffffffffffffffffffffffffffffffffffffffff161415611709576040517f08c379a000000000000000000000000000000000000000000000000000000000815260040161170090613922565b60405180910390fd5b60006008600083815260200190815260200160002060040160009054906101000a900473ffffffffffffffffffffffffffffffffffffffff169050336008600084815260200190815260200160002060040160006101000a81548173ffffffffffffffffffffffffffffffffffffffff021916908373ffffffffffffffffffffffffffffffffffffffff16021790555060006008600084815260200190815260200160002060060160006101000a81548160ff0219169083151502179055506117d33033846121ba565b8073ffffffffffffffffffffffffffffffffffffffff166108fc349081150290604051600060405180830381858888f19350505050158015611819573d6000803e3d6000fd5b505050565b6000600560008473ffffffffffffffffffffffffffffffffffffffff1673ffffffffffffffffffffffffffffffffffffffff16815260200190815260200160002060008373ffffffffffffffffffffffffffffffffffffffff1673ffffffffffffffffffffffffffffffffffffffff16815260200190815260200160002060009054906101000a900460ff16905092915050565b6060600060016007546118c59190613c75565b905060008167ffffffffffffffff811115611909577f4e487b7100000000000000000000000000000000000000000000000000000000600052604160045260246000fd5b60405190808252806020026020018201604052801561194257816020015b61192f612cf9565b8152602001906001900390816119275790505b5090506000600860008681526020019081526020016000209050806040518060e00160405290816000820154815260200160018201805461198290613de6565b80601f01602080910402602001604051908101604052809291908181526020018280546119ae90613de6565b80156119fb5780601f106119d0576101008083540402835291602001916119fb565b820191906000526020600020905b8154815290600101906020018083116119de57829003601f168201915b50505050508152602001600282018054611a1490613de6565b80601f0160208091040260200160405190810160405280929190818152602001828054611a4090613de6565b8015611a8d5780601f10611a6257610100808354040283529160200191611a8d565b820191906000526020600020905b815481529060010190602001808311611a7057829003601f168201915b50505050508152602001600382015481526020016004820160009054906101000a900473ffffffffffffffffffffffffffffffffffffffff1673ffffffffffffffffffffffffffffffffffffffff1673ffffffffffffffffffffffffffffffffffffffff168152602001600582018054611b0690613de6565b80601f0160208091040260200160405190810160405280929190818152602001828054611b3290613de6565b8015611b7f5780601f10611b5457610100808354040283529160200191611b7f565b820191906000526020600020905b815481529060010190602001808311611b6257829003601f168201915b505050505081526020016006820160009054906101000a900460ff161515151581525050828681518110611bdc577f4e487b7100000000000000000000000000000000000000000000000000000000600052603260045260246000fd5b6020026020010181905250819350505050919050565b60008211611c35576040517f08c379a0000000000000000000000000000000000000000000000000000000008152600401611c2c90613842565b60405180910390fd5b6001600754611c449190613c75565b60078190555060006007549050611c5c3383836126a8565b611c673330836121ba565b6040518060e001604052808281526020018681526020018581526020018481526020013373ffffffffffffffffffffffffffffffffffffffff1681526020018381526020016001151581525060086000838152602001908152602001600020600082015181600001556020820151816001019080519060200190611cec929190612d4e565b506040820151816002019080519060200190611d09929190612d4e565b506060820151816003015560808201518160040160006101000a81548173ffffffffffffffffffffffffffffffffffffffff021916908373ffffffffffffffffffffffffffffffffffffffff16021790555060a0820151816005019080519060200190611d77929190612d4e565b5060c08201518160060160006101000a81548160ff0219169083151502179055509050505050505050565b600073ffffffffffffffffffffffffffffffffffffffff166008600084815260200190815260200160002060040160009054906101000a900473ffffffffffffffffffffffffffffffffffffffff1673ffffffffffffffffffffffffffffffffffffffff161415611e48576040517f08c379a0000000000000000000000000000000000000000000000000000000008152600401611e3f90613922565b60405180910390fd5b6008600083815260200190815260200160002060040160009054906101000a900473ffffffffffffffffffffffffffffffffffffffff1673ffffffffffffffffffffffffffffffffffffffff163373ffffffffffffffffffffffffffffffffffffffff1614611eec576040517f08c379a0000000000000000000000000000000000000000000000000000000008152600401611ee390613a22565b60405180910390fd5b60016008600084815260200190815260200160002060060160006101000a81548160ff021916908315150217905550806008600084815260200190815260200160002060030181905550611f413330846121ba565b5050565b60007f01ffc9a7000000000000000000000000000000000000000000000000000000007bffffffffffffffffffffffffffffffffffffffffffffffffffffffff1916827bffffffffffffffffffffffffffffffffffffffffffffffffffffffff1916149050919050565b60008073ffffffffffffffffffffffffffffffffffffffff166002600084815260200190815260200160002060009054906101000a900473ffffffffffffffffffffffffffffffffffffffff1673ffffffffffffffffffffffffffffffffffffffff1614159050919050565b600033905090565b816004600083815260200190815260200160002060006101000a81548173ffffffffffffffffffffffffffffffffffffffff021916908373ffffffffffffffffffffffffffffffffffffffff160217905550808273ffffffffffffffffffffffffffffffffffffffff1661209683610c23565b73ffffffffffffffffffffffffffffffffffffffff167f8c5be1e5ebec7d5bd14f71427d1e84f3dd0314c0f7b2291e5b200ac8c7c3b92560405160405180910390a45050565b60006120e782611faf565b612126576040517f08c379a000000000000000000000000000000000000000000000000000000000815260040161211d90613902565b60405180910390fd5b600061213183610c23565b90508073ffffffffffffffffffffffffffffffffffffffff168473ffffffffffffffffffffffffffffffffffffffff1614806121735750612172818561181e565b5b806121b157508373ffffffffffffffffffffffffffffffffffffffff1661219984610a06565b73ffffffffffffffffffffffffffffffffffffffff16145b91505092915050565b8273ffffffffffffffffffffffffffffffffffffffff166121da82610c23565b73ffffffffffffffffffffffffffffffffffffffff1614612230576040517f08c379a000000000000000000000000000000000000000000000000000000000815260040161222790613882565b60405180910390fd5b600073ffffffffffffffffffffffffffffffffffffffff168273ffffffffffffffffffffffffffffffffffffffff1614156122a0576040517f08c379a0000000000000000000000000000000000000000000000000000000008152600401612297906138c2565b60405180910390fd5b6122ab8383836126c1565b6122b6600082612023565b6001600360008573ffffffffffffffffffffffffffffffffffffffff1673ffffffffffffffffffffffffffffffffffffffff16815260200190815260200160002060008282546123069190613cfc565b925050819055506001600360008473ffffffffffffffffffffffffffffffffffffffff1673ffffffffffffffffffffffffffffffffffffffff168152602001908152602001600020600082825461235d9190613c75565b92505081905550816002600083815260200190815260200160002060006101000a81548173ffffffffffffffffffffffffffffffffffffffff021916908373ffffffffffffffffffffffffffffffffffffffff160217905550808273ffffffffffffffffffffffffffffffffffffffff168473ffffffffffffffffffffffffffffffffffffffff167fddf252ad1be2c89b69c2b068fc378daa952ba7f163c4a11628f55a4df523b3ef60405160405180910390a461241c8383836126c6565b505050565b8173ffffffffffffffffffffffffffffffffffffffff168373ffffffffffffffffffffffffffffffffffffffff161415612490576040517f08c379a0000000000000000000000000000000000000000000000000000000008152600401612487906138e2565b60405180910390fd5b80600560008573ffffffffffffffffffffffffffffffffffffffff1673ffffffffffffffffffffffffffffffffffffffff16815260200190815260200160002060008473ffffffffffffffffffffffffffffffffffffffff1673ffffffffffffffffffffffffffffffffffffffff16815260200190815260200160002060006101000a81548160ff0219169083151502179055508173ffffffffffffffffffffffffffffffffffffffff168373ffffffffffffffffffffffffffffffffffffffff167f17307eab39ab6107e8899845ad3d59bd9653f200f220920489ca2b5937696c31836040516125819190613805565b60405180910390a3505050565b6125998484846121ba565b6125a5848484846126cb565b6125e4576040517f08c379a00000000000000000000000000000000000000000000000000000000081526004016125db90613862565b60405180910390fd5b50505050565b606060405180602001604052806000815250905090565b606061260c82611faf565b61264b576040517f08c379a000000000000000000000000000000000000000000000000000000000815260040161264290613a42565b60405180910390fd5b60006126556125ea565b9050600081511161267557604051806020016040528060008152506126a0565b8061267f84612862565b604051602001612690929190613758565b6040516020818303038152906040525b915050919050565b6126b28382612a0f565b6126bc8183612a2d565b505050565b505050565b505050565b60006126ec8473ffffffffffffffffffffffffffffffffffffffff16612aa1565b15612855578373ffffffffffffffffffffffffffffffffffffffff1663150b7a0261271561201b565b8786866040518563ffffffff1660e01b81526004016127379493929190613797565b602060405180830381600087803b15801561275157600080fd5b505af192505050801561278257506040513d601f19601f8201168201806040525081019061277f91906130fa565b60015b612805573d80600081146127b2576040519150601f19603f3d011682016040523d82523d6000602084013e6127b7565b606091505b506000815114156127fd576040517f08c379a00000000000000000000000000000000000000000000000000000000081526004016127f490613862565b60405180910390fd5b805181602001fd5b63150b7a0260e01b7bffffffffffffffffffffffffffffffffffffffffffffffffffffffff1916817bffffffffffffffffffffffffffffffffffffffffffffffffffffffff19161491505061285a565b600190505b949350505050565b606060008214156128aa576040518060400160405280600181526020017f30000000000000000000000000000000000000000000000000000000000000008152509050612a0a565b600082905060005b600082146128dc5780806128c590613e49565b915050600a826128d59190613ccb565b91506128b2565b60008167ffffffffffffffff81111561291e577f4e487b7100000000000000000000000000000000000000000000000000000000600052604160045260246000fd5b6040519080825280601f01601f1916602001820160405280156129505781602001600182028036833780820191505090505b5090505b60008514612a03576001826129699190613cfc565b9150600a856129789190613e92565b60306129849190613c75565b60f81b8183815181106129c0577f4e487b7100000000000000000000000000000000000000000000000000000000600052603260045260246000fd5b60200101907effffffffffffffffffffffffffffffffffffffffffffffffffffffffffffff1916908160001a905350600a856129fc9190613ccb565b9450612954565b8093505050505b919050565b612a29828260405180602001604052806000815250612ac4565b5050565b612a3682611faf565b612a75576040517f08c379a0000000000000000000000000000000000000000000000000000000008152600401612a6c906139a2565b60405180910390fd5b80600660008481526020019081526020016000209080519060200190612a9c929190612d4e565b505050565b6000808273ffffffffffffffffffffffffffffffffffffffff163b119050919050565b612ace8383612b1f565b612adb60008484846126cb565b612b1a576040517f08c379a0000000000000000000000000000000000000000000000000000000008152600401612b1190613862565b60405180910390fd5b505050565b600073ffffffffffffffffffffffffffffffffffffffff168273ffffffffffffffffffffffffffffffffffffffff161415612b8f576040517f08c379a0000000000000000000000000000000000000000000000000000000008152600401612b86906139c2565b60405180910390fd5b612b9881611faf565b15612bd8576040517f08c379a0000000000000000000000000000000000000000000000000000000008152600401612bcf906138a2565b60405180910390fd5b612be4600083836126c1565b6001600360008473ffffffffffffffffffffffffffffffffffffffff1673ffffffffffffffffffffffffffffffffffffffff1681526020019081526020016000206000828254612c349190613c75565b92505081905550816002600083815260200190815260200160002060006101000a81548173ffffffffffffffffffffffffffffffffffffffff021916908373ffffffffffffffffffffffffffffffffffffffff160217905550808273ffffffffffffffffffffffffffffffffffffffff16600073ffffffffffffffffffffffffffffffffffffffff167fddf252ad1be2c89b69c2b068fc378daa952ba7f163c4a11628f55a4df523b3ef60405160405180910390a4612cf5600083836126c6565b5050565b6040518060e0016040528060008152602001606081526020016060815260200160008152602001600073ffffffffffffffffffffffffffffffffffffffff168152602001606081526020016000151581525090565b828054612d5a90613de6565b90600052602060002090601f016020900481019282612d7c5760008555612dc3565b82601f10612d9557805160ff1916838001178555612dc3565b82800160010185558215612dc3579182015b82811115612dc2578251825591602001919060010190612da7565b5b509050612dd09190612dd4565b5090565b5b80821115612ded576000816000905550600101612dd5565b5090565b6000612e04612dff84613b86565b613b61565b905082815260208101848484011115612e1c57600080fd5b612e27848285613da4565b509392505050565b6000612e42612e3d84613bb7565b613b61565b905082815260208101848484011115612e5a57600080fd5b612e65848285613da4565b509392505050565b600081359050612e7c816144b2565b92915050565b600081359050612e91816144c9565b92915050565b600081359050612ea6816144e0565b92915050565b600081519050612ebb816144e0565b92915050565b600082601f830112612ed257600080fd5b8135612ee2848260208601612df1565b91505092915050565b600082601f830112612efc57600080fd5b8135612f0c848260208601612e2f565b91505092915050565b600081359050612f24816144f7565b92915050565b600060208284031215612f3c57600080fd5b6000612f4a84828501612e6d565b91505092915050565b60008060408385031215612f6657600080fd5b6000612f7485828601612e6d565b9250506020612f8585828601612e6d565b9150509250929050565b600080600060608486031215612fa457600080fd5b6000612fb286828701612e6d565b9350506020612fc386828701612e6d565b9250506040612fd486828701612f15565b9150509250925092565b60008060008060808587031215612ff457600080fd5b600061300287828801612e6d565b945050602061301387828801612e6d565b935050604061302487828801612f15565b925050606085013567ffffffffffffffff81111561304157600080fd5b61304d87828801612ec1565b91505092959194509250565b6000806040838503121561306c57600080fd5b600061307a85828601612e6d565b925050602061308b85828601612e82565b9150509250929050565b600080604083850312156130a857600080fd5b60006130b685828601612e6d565b92505060206130c785828601612f15565b9150509250929050565b6000602082840312156130e357600080fd5b60006130f184828501612e97565b91505092915050565b60006020828403121561310c57600080fd5b600061311a84828501612eac565b91505092915050565b6000806000806080858703121561313957600080fd5b600085013567ffffffffffffffff81111561315357600080fd5b61315f87828801612eeb565b945050602085013567ffffffffffffffff81111561317c57600080fd5b61318887828801612eeb565b935050604061319987828801612f15565b925050606085013567ffffffffffffffff8111156131b657600080fd5b6131c287828801612eeb565b91505092959194509250565b6000602082840312156131e057600080fd5b60006131ee84828501612f15565b91505092915050565b6000806040838503121561320a57600080fd5b600061321885828601612f15565b925050602061322985828601612f15565b9150509250929050565b600061323f8383613690565b905092915050565b61325081613d30565b82525050565b61325f81613d30565b82525050565b600061327082613bf8565b61327a8185613c26565b93508360208202850161328c85613be8565b8060005b858110156132c857848403895281516132a98582613233565b94506132b483613c19565b925060208a01995050600181019050613290565b50829750879550505050505092915050565b6132e381613d42565b82525050565b6132f281613d42565b82525050565b600061330382613c03565b61330d8185613c37565b935061331d818560208601613db3565b61332681613f7f565b840191505092915050565b600061333c82613c0e565b6133468185613c48565b9350613356818560208601613db3565b61335f81613f7f565b840191505092915050565b600061337582613c0e565b61337f8185613c59565b935061338f818560208601613db3565b61339881613f7f565b840191505092915050565b60006133ae82613c0e565b6133b88185613c6a565b93506133c8818560208601613db3565b80840191505092915050565b60006133e1601e83613c59565b91506133ec82613f90565b602082019050919050565b6000613404603283613c59565b915061340f82613fb9565b604082019050919050565b6000613427602583613c59565b915061343282614008565b604082019050919050565b600061344a601c83613c59565b915061345582614057565b602082019050919050565b600061346d602483613c59565b915061347882614080565b604082019050919050565b6000613490601983613c59565b915061349b826140cf565b602082019050919050565b60006134b3602c83613c59565b91506134be826140f8565b604082019050919050565b60006134d6600b83613c59565b91506134e182614147565b602082019050919050565b60006134f9603883613c59565b915061350482614170565b604082019050919050565b600061351c602a83613c59565b9150613527826141bf565b604082019050919050565b600061353f602983613c59565b915061354a8261420e565b604082019050919050565b6000613562602e83613c59565b915061356d8261425d565b604082019050919050565b6000613585602083613c59565b9150613590826142ac565b602082019050919050565b60006135a8603183613c59565b91506135b3826142d5565b604082019050919050565b60006135cb602c83613c59565b91506135d682614324565b604082019050919050565b60006135ee600b83613c59565b91506135f982614373565b602082019050919050565b6000613611602f83613c59565b915061361c8261439c565b604082019050919050565b6000613634602183613c59565b915061363f826143eb565b604082019050919050565b6000613657603183613c59565b91506136628261443a565b604082019050919050565b600061367a601383613c59565b915061368582614489565b602082019050919050565b600060e0830160008301516136a8600086018261373a565b50602083015184820360208601526136c08282613331565b915050604083015184820360408601526136da8282613331565b91505060608301516136ef606086018261373a565b5060808301516137026080860182613247565b5060a083015184820360a086015261371a8282613331565b91505060c083015161372f60c08601826132da565b508091505092915050565b61374381613d9a565b82525050565b61375281613d9a565b82525050565b600061376482856133a3565b915061377082846133a3565b91508190509392505050565b60006020820190506137916000830184613256565b92915050565b60006080820190506137ac6000830187613256565b6137b96020830186613256565b6137c66040830185613749565b81810360608301526137d881846132f8565b905095945050505050565b600060208201905081810360008301526137fd8184613265565b905092915050565b600060208201905061381a60008301846132e9565b92915050565b6000602082019050818103600083015261383a818461336a565b905092915050565b6000602082019050818103600083015261385b816133d4565b9050919050565b6000602082019050818103600083015261387b816133f7565b9050919050565b6000602082019050818103600083015261389b8161341a565b9050919050565b600060208201905081810360008301526138bb8161343d565b9050919050565b600060208201905081810360008301526138db81613460565b9050919050565b600060208201905081810360008301526138fb81613483565b9050919050565b6000602082019050818103600083015261391b816134a6565b9050919050565b6000602082019050818103600083015261393b816134c9565b9050919050565b6000602082019050818103600083015261395b816134ec565b9050919050565b6000602082019050818103600083015261397b8161350f565b9050919050565b6000602082019050818103600083015261399b81613532565b9050919050565b600060208201905081810360008301526139bb81613555565b9050919050565b600060208201905081810360008301526139db81613578565b9050919050565b600060208201905081810360008301526139fb8161359b565b9050919050565b60006020820190508181036000830152613a1b816135be565b9050919050565b60006020820190508181036000830152613a3b816135e1565b9050919050565b60006020820190508181036000830152613a5b81613604565b9050919050565b60006020820190508181036000830152613a7b81613627565b9050919050565b60006020820190508181036000830152613a9b8161364a565b9050919050565b60006020820190508181036000830152613abb8161366d565b9050919050565b6000602082019050613ad76000830184613749565b92915050565b600060e082019050613af2600083018a613749565b8181036020830152613b04818961336a565b90508181036040830152613b18818861336a565b9050613b276060830187613749565b613b346080830186613256565b81810360a0830152613b46818561336a565b9050613b5560c08301846132e9565b98975050505050505050565b6000613b6b613b7c565b9050613b778282613e18565b919050565b6000604051905090565b600067ffffffffffffffff821115613ba157613ba0613f50565b5b613baa82613f7f565b9050602081019050919050565b600067ffffffffffffffff821115613bd257613bd1613f50565b5b613bdb82613f7f565b9050602081019050919050565b6000819050602082019050919050565b600081519050919050565b600081519050919050565b600081519050919050565b6000602082019050919050565b600082825260208201905092915050565b600082825260208201905092915050565b600082825260208201905092915050565b600082825260208201905092915050565b600081905092915050565b6000613c8082613d9a565b9150613c8b83613d9a565b9250827fffffffffffffffffffffffffffffffffffffffffffffffffffffffffffffffff03821115613cc057613cbf613ec3565b5b828201905092915050565b6000613cd682613d9a565b9150613ce183613d9a565b925082613cf157613cf0613ef2565b5b828204905092915050565b6000613d0782613d9a565b9150613d1283613d9a565b925082821015613d2557613d24613ec3565b5b828203905092915050565b6000613d3b82613d7a565b9050919050565b60008115159050919050565b60007fffffffff0000000000000000000000000000000000000000000000000000000082169050919050565b600073ffffffffffffffffffffffffffffffffffffffff82169050919050565b6000819050919050565b82818337600083830152505050565b60005b83811015613dd1578082015181840152602081019050613db6565b83811115613de0576000848401525b50505050565b60006002820490506001821680613dfe57607f821691505b60208210811415613e1257613e11613f21565b5b50919050565b613e2182613f7f565b810181811067ffffffffffffffff82111715613e4057613e3f613f50565b5b80604052505050565b6000613e5482613d9a565b91507fffffffffffffffffffffffffffffffffffffffffffffffffffffffffffffffff821415613e8757613e86613ec3565b5b600182019050919050565b6000613e9d82613d9a565b9150613ea883613d9a565b925082613eb857613eb7613ef2565b5b828206905092915050565b7f4e487b7100000000000000000000000000000000000000000000000000000000600052601160045260246000fd5b7f4e487b7100000000000000000000000000000000000000000000000000000000600052601260045260246000fd5b7f4e487b7100000000000000000000000000000000000000000000000000000000600052602260045260246000fd5b7f4e487b7100000000000000000000000000000000000000000000000000000000600052604160045260246000fd5b6000601f19601f8301169050919050565b7f70726963652073686f756c642062652067726561746572207468616e20300000600082015250565b7f4552433732313a207472616e7366657220746f206e6f6e20455243373231526560008201527f63656976657220696d706c656d656e7465720000000000000000000000000000602082015250565b7f4552433732313a207472616e736665722066726f6d20696e636f72726563742060008201527f6f776e6572000000000000000000000000000000000000000000000000000000602082015250565b7f4552433732313a20746f6b656e20616c7265616479206d696e74656400000000600082015250565b7f4552433732313a207472616e7366657220746f20746865207a65726f2061646460008201527f7265737300000000000000000000000000000000000000000000000000000000602082015250565b7f4552433732313a20617070726f766520746f2063616c6c657200000000000000600082015250565b7f4552433732313a206f70657261746f7220717565727920666f72206e6f6e657860008201527f697374656e7420746f6b656e0000000000000000000000000000000000000000602082015250565b7f446f6e2774204578697374000000000000000000000000000000000000000000600082015250565b7f4552433732313a20617070726f76652063616c6c6572206973206e6f74206f7760008201527f6e6572206e6f7220617070726f76656420666f7220616c6c0000000000000000602082015250565b7f4552433732313a2062616c616e636520717565727920666f7220746865207a6560008201527f726f206164647265737300000000000000000000000000000000000000000000602082015250565b7f4552433732313a206f776e657220717565727920666f72206e6f6e657869737460008201527f656e7420746f6b656e0000000000000000000000000000000000000000000000602082015250565b7f45524337323155524953746f726167653a2055524920736574206f66206e6f6e60008201527f6578697374656e7420746f6b656e000000000000000000000000000000000000602082015250565b7f4552433732313a206d696e7420746f20746865207a65726f2061646472657373600082015250565b7f45524337323155524953746f726167653a2055524920717565727920666f722060008201527f6e6f6e6578697374656e7420746f6b656e000000000000000000000000000000602082015250565b7f4552433732313a20617070726f76656420717565727920666f72206e6f6e657860008201527f697374656e7420746f6b656e0000000000000000000000000000000000000000602082015250565b7f4e6f7420616c6c6f776564000000000000000000000000000000000000000000600082015250565b7f4552433732314d657461646174613a2055524920717565727920666f72206e6f60008201527f6e6578697374656e7420746f6b656e0000000000000000000000000000000000602082015250565b7f4552433732313a20617070726f76616c20746f2063757272656e74206f776e6560008201527f7200000000000000000000000000000000000000000000000000000000000000602082015250565b7f4552433732313a207472616e736665722063616c6c6572206973206e6f74206f60008201527f776e6572206e6f7220617070726f766564000000000000000000000000000000602082015250565b7f43616e74277420627579206f776e204974656d00000000000000000000000000600082015250565b6144bb81613d30565b81146144c657600080fd5b50565b6144d281613d42565b81146144dd57600080fd5b50565b6144e981613d4e565b81146144f457600080fd5b50565b61450081613d9a565b811461450b57600080fd5b5056fea2646970667358221220d73c153e8dd6667062fa8dbd2f8b08aa257d12c3d6f9faa7267b5e2bc1b0d53c64736f6c63430008040033",
  "linkReferences": {},
  "deployedLinkReferences": {}
}